:020000040800F2
:1000000070090020FD1500082116000823160008BD
:10001000271600082B1600082F1600080000000005
:10002000000000000000000000000000331600087F
:1000300035160008000000003716000839160008C1
:1000400017160008171600081716000817160008DC
:1000500017160008171600081716000817160008CC
:1000600017160008171600081716000817160008BC
:1000700017160008171600081716000817160008AC
:10008000171600081716000817160008171600089C
:10009000171600081716000817160008171600088C
:1000A000171600081716000817160008171600087C
:1000B000171600088506000817160008171600080E
:1000C000171600081716000817160008171600085C
:1000D00017160008791500081716000817160008EB
:1000E000171600081716000817160008DFF80CD0BE
:1000F00008F0A0F9004800477312000870090020BA
:1001000008B50020FE490861C8601420486100203D
:100110008861C8610846006840F001000860084630
:100120004068F8490840F649486008460068F649C2
:100130000840F34908600846006820F48020086001
:100140000846406820F4FE004860002088601D20BA
:100150008DF8000000208DF8010003208DF80200CA
:1001600001208DF80300684604F0D5FA08BD31B5CA
:100170000024FFF7C5FFE248006840F48030E04902
:10018000086000BFDE480068400C0028FAD04FF439
:100190008060DB4948609DF80000801EC0B200907E
:1001A000084640689DF8001040EA8140D449486004
:1001B0000846406840F480304860D448006840F009
:1001C0003200D2490860CE48006840F08070CC49C7
:1001D000086000BFCA480068400E0028FAD0C8482E
:1001E000406840F00200C649486005E0C4484068E5
:1001F000C0F3870404F00304022CF7D138BD10B516
:10020000C3480078C2114FF40051C24802F0EDFC1F
:10021000BF480078C043BE49087010BD1CB500201F
:10022000019000900024F0234FF4A07200210846B2
:1002300001F0B5FB01221103B64802F0D6FC00BF65
:1002400005E0601C0446B0F5803F00D31CBD0121D1
:10025000B04802F06AFB0128F3D000222021AD480B
:1002600002F0C3FC01222021AA4802F0BEFC0122B8
:100270000221A84802F0B9FC002405E0601C0446F5
:10028000B0F5803F00D3E1E70121A24802F04DFB29
:100290000028F3D0002405E0601C0446B0F5803F40
:1002A00000D3D3E701219B4802F03FFB0128F3D0A4
:1002B00000220221974802F098FC01F0B5FF0020CF
:1002C000019034E00020009027E01020914948611F
:1002D000914800689149088010208E490861486162
:1002E0008D480068C0B28E49088010208949086195
:1002F0008B4800888949098840EA0120894908809B
:100300000846008888490860C81482494861086125
:10031000BDF80000401C80B20090BDF80000B0F5B0
:10032000A07FD2DBBDF80400401C80B20190BDF874
:100330000400F028C6DB00BF88E77CB500200190F0
:1003400000900024F0234FF4A0720021084601F031
:1003500026FB012211036F4802F047FC00BF05E0B5
:10036000601C0446B0F5803F00D37CBD0121694884
:1003700002F0DBFA0128F3D000222021654802F0C8
:1003800034FC01222021634802F02FFC01220221CB
:10039000604802F02AFC002405E0601C0446B0F529
:1003A000803F00D3E1E701215A4802F0BEFA00285D
:1003B000F3D0002405E0601C0446B0F5803F00D374
:1003C000D3E70121534802F0B0FA0128F3D000220C
:1003D0000221504802F009FC01F026FF002501200F
:1003E00001F09BFDFE2001F098FD002001902EE021
:1003F0000020009021E010204649486146480068EE
:100400004649088010204349086148614248006815
:10041000C0B24349088010203E4908613F4909881D
:10042000C8B201F07AFD3E490988C8B201F075FDF5
:10043000BDF80000401C80B20090BDF80000B0F58F
:10044000A07FD8DBBDF80400401C80B20190BDF84D
:100450000400F028CCDBFE2001F05FFD012001F05C
:100460005CFD00BF81E72DE9F14384B00024002545
:100470000020039002900190BDF81000C012C0EB64
:1004800000201F2190FBF1F0C0B20390BDF81000D6
:10049000C0F34510C0EB00203F2190FBF1F0C0B24B
:1004A0000290BDF8100000F01F00C0EB00201F21DB
:1004B00090FBF1F0C0B201909DF80C0007F069FFCD
:1004C00004469DF80C0007F064FF05469DF80800FF
:1004D00007F05FFF0646214607F06AFF04D89DF843
:1004E000080007F056FF04469DF8040007F051FF8E
:1004F0000646214607F05CFF1BD89DF8040015E076
:10050000001002400000FFF8FFFFF6FE002002404E
:100510001A00002000100140080801401C000020C3
:100520001E000020200000200C0C014007F031FFCD
:1005300004469DF8080007F02CFF0646294607F000
:100540002DFF04D89DF8080007F023FF05469DF80D
:10055000040007F01EFF0646294607F01FFF04D8D7
:100560009DF8040007F015FF05462146F84807F0FE
:1005700097FE0646F74907F0C5FEF7490860294689
:10058000204607F087FE0746F14907F089FE064638
:10059000214607F0B7FEF14908609DF80C0007F00E
:1005A000F8FE0646214607F0F9FE15D129462046F9
:1005B00007F070FE07469DF808109DF80420881A81
:1005C00007F0DEFE8046394607F09CFE0646E44909
:1005D00007F066FEE34908609DF8080007F0D9FEC1
:1005E0000646214607F0DAFE19D12946204607F0D3
:1005F00051FE80469DF804109DF80C20881A07F0E3
:10060000BFFE8146414607F07DFE0746D44907F00C
:1006100047FE0646D44907F0EBFDD24908609DF835
:10062000040007F0B6FE0646214607F0B7FE19D1D2
:100630002946204607F02EFE80469DF80C109DF8B6
:100640000820881A07F09CFE8146414607F05AFEB2
:100650000746C34907F024FE0646C44907F0C8FD13
:10066000C04908600021BF48006807F097FE06D225
:10067000BF49BC48006807F0BBFDBA49086005B037
:10068000BDE8F08310B5BB48008800F0010008B158
:10069000FFF7B5FDB748008820F00100B549088094
:1006A00010BD10B50121022003F04AF84FF4FA60A2
:1006B000B149888043F2FF1008800020C88048803C
:1006C000AC48103804F0FEF901224121A948103845
:1006D00005F0CCFA0121A748103805F042FA10BD08
:1006E0002DE9F0470746884615461E46DDF820905E
:1006F0003C460BE04A464146204601F09FF94A46F7
:100700003146204601F09AF9601C84B2AC42F1DD1A
:1007100044460BE04A462146384601F08FF94A46E6
:100720002146284601F08AF9601C84B2B442F1DD0A
:10073000BDE8F0872DE9F04106460F461546002436
:100740000BE02A5D04EB440106EB810188B2002333
:10075000394601F086F9601C84B2285D0028F0D18A
:10076000BDE8F0812DE9F04F87B05F274FF04608D4
:100770004FF00A0B1E2006900A2005900F200490CF
:100780004FF4FC6003904FF4784002907B4800786F
:1007900070B100207949087001207949087000245F
:1007A00004E0FF2077490855601CC4B2062CF8DB32
:1007B0007348007838B1002001F01AF972A20521BF
:1007C0006420FFF7B7FF002460E0032094FBF0F003
:1007D00000F0FF09032094FBF0F100FB114000F052
:1007E000FF0A059838440AFB00B085B2049808EB6C
:1007F0000001069809FB010086B26148007840B903
:100800006048005DC4EBC401634A12F821108842BD
:1008100023D0C4EBC400604911F8200058B10298FD
:10082000009006EB080083B2E81982B231462846F0
:10083000FFF756FF0AE00398009006EB080083B22A
:10084000E81982B231462846FFF74AFFC4EBC400DC
:10085000514911F820004B4908554948007898B192
:10086000721D91B205F1230290B20023502201F0D3
:10087000F8F804F13103DAB2731D99B205F12F03D0
:1008800098B2002301F0EDF8601CC4B2062C9CDB8A
:100890003B48007810B100203949087007B0BDE826
:1008A000F08F0146002001E0421CD0B20A5C002A11
:1008B000FAD1704770B5012001F06FFE0546D5B939
:1008C00001203549087001F10800FFF7EAFFF0B98F
:1008D000002405E03148015D2F4808300155641CB3
:1008E000142C03D22D48005D0028F3D100212A48A2
:1008F000083001550BE0002027490870002404E06F
:100900000021254808300155641C142CF8D370BD13
:1009100070B502460C46002114E00125002308E0D2
:10092000C818105CE65CB04201D0002504E0581CF9
:10093000C3B2E05C0028F3D100BF0DB1501870BD08
:10094000481CC1B2505C0028E7D100BFF7E70000A7
:100950000000C84200007F43380000203C00002017
:1009600000007042400000200000F0420000704390
:100970000000B44310040040F000002018000020E4
:10098000BD000020BE0000205041524B494E472080
:100990005354415455530000C804002068040020FB
:1009A00038B50446002001F023F81F20FA234FF445
:1009B0009B720A2100900846FFF792FE0023562200
:1009C0001421822001F04DF80023652214218E208D
:1009D00001F047F80023682214219A2001F041F821
:1009E000002369221421A62001F03BF80023632292
:1009F0001421B22001F035F800236C221421BE200E
:100A000001F02FF8002365221421CA2001F029F8F3
:100A10000023502232211E2001F023F800236C22F3
:100A200032212A2001F01DF80023612232213620D4
:100A300001F017F8002374223221422001F011F84E
:100A40000023652232214E2001F00BF800233A22C8
:100A500032215A2001F005F82046FFF722FF002836
:100A600004DD224632216E20FFF764FE002343227C
:100A700050211E2000F0F5FF00236F2250212A2074
:100A800000F0EFFF00236C225021362000F0E9FF38
:100A900000236F225021422000F0E3FF0023722246
:100AA00050214E2000F0DDFF00233A2250215A2031
:100AB00000F0D7FF04F1140250216E20FFF73AFE38
:100AC000002349226E211E2000F0CBFF00236E225E
:100AD00011462A2000F0C5FF00233A226E2136205D
:100AE00000F0BFFF04F11E026E214B20FFF722FE33
:100AF00000234F228C211E2000F0B3FF002375221B
:100B00008C212A2000F0ADFF002374228C21362096
:100B100000F0A7FF00233A228C21422000F0A1FF21
:100B200004F137028C215520FFF704FE00235322E5
:100B3000AA211E2000F095FF00237422AA212A205A
:100B400000F08FFF00236122AA21362000F089FFE8
:100B500000237422AA21422000F083FF0023752283
:100B6000AA214E2000F07DFF00237322AA215A20E3
:100B700000F077FF00233A22AA21662000F071FFDF
:100B800004F15002AA217820FFF7D4FD0023462269
:100B9000C8211E2000F065FF00236522C8212A20FD
:100BA00000F05FFF00236522C821362000F059FFC6
:100BB00000233A22C821422000F053FF0623C82117
:100BC0005A20E26D01F014F800235922C821962022
:100BD00000F047FF04F15000FFF763FE022812DB2C
:100BE00094F8500069280ED15120005D6E280AD17A
:100BF0004FF4FC60FA234FF49B720A2100900846E0
:100C0000FFF76EFD09E04FF47840FA234FF49B7232
:100C10000A2100900846FFF763FD38BD0146002019
:100C200006E00A78303A00EB800302EB4300491CEF
:100C30000A78302A02DB0A78392AF2DD70472DE97A
:100C4000F04107464FF00008002404E00020FB4973
:100C50000855601CC4B2142CF8DB002405E0002108
:100C6000F64814300155601CC4B20A2CF7DB00248E
:100C700005E00021F1481E300155601CC4B2192C5A
:100C8000F7DB002405E00021EC4837300155601CFB
:100C9000C4B2192CF7DB002405E00021E7485030EE
:100CA0000155601CC4B20A2CF7DBE5A13846FFF7FA
:100CB0002FFE002835D04FF00108E1A13846FFF79C
:100CC00027FE05466DB30835E0A12846FFF720FE54
:100CD00006468EB1711BC8B2132800DD1320002414
:100CE00004E0295DD54A1155611CCCB28442F8DB81
:100CF0000021D24A115400BF002405E00021CF4852
:100D000050300155601CC4B20A2CF7DB6F20CB4970
:100D100081F850007521C94880F85110742180F87D
:100D20005210B8F1000F1ED1C9A13846FFF7F0FDEF
:100D30000546C5B1AD1DC5A12846FFF7E9FD06462C
:100D40008EB1711BC8B2132800DD1320002404E00B
:100D5000295DBA4A1155611CCCB28442F8DB0021EE
:100D6000B64A115400BFBCA13846FFF7D1FD054675
:100D7000D5B1AD1DB5A12846FFF7CAFD06469EB107
:100D8000711BC8B2092800DD0920002405E02A5D96
:100D9000AA4914310A55611CCCB28442F7DB002207
:100DA000A64914310A5400BFADA13846FFF7B0FD83
:100DB0000546D5B1ED1CA5A12846FFF7A9FD0646BD
:100DC0009EB1711BC8B2182800DD1820002405E070
:100DD0002A5D9A491E310A55611CCCB28442F7DB68
:100DE000002296491E310A5400BF9EA13846FFF7E3
:100DF0008FFD0546D5B12D1D94A12846FFF788FD2E
:100E000006469EB1711BC8B2182800DD18200024C8
:100E100005E02A5D894937310A55611CCCB284420C
:100E2000F7DB0022854937310A5400BF8FA13846CD
:100E3000FFF76EFD05462DB3ED1D8EA12846FFF789
:100E400067FD064626B98CA12846FFF761FD0646D8
:100E50001EB92846FFF725FD46199EB1711BC8B281
:100E6000092800DD0920002405E02A5D734950317E
:100E70000A55611CCCB28442F7DB00226F49503125
:100E80000A5400BF7DA13846FFF742FD05462DB14B
:100E90002D1D2846FFF7C2FE6849C865BDE8F081F0
:100EA00010B5784800780E2822D2DFE800F007213C
:100EB00022215F7387C5C4C3C2C1C0BFFFF7FAFC5C
:100EC000FFF750FC002001F091FB012810D1022017
:100ED0006C49087000206C490860FF206B4908705D
:100EE00046F2666000F084FD4FF4FA7000F057FFA0
:100EF000BDE166480078FF2801D1FFF78FF963480C
:100F0000007861490968884211D05F4800685F49EC
:100F100008705D480068C0F10300C4B204F13000FD
:100F2000C2B201236421902000F09BFD00BF58480D
:100F3000006832305649086008460068B0F57A7F8C
:100F400013D30020086050480068401C4E490860D8
:100F500008460068032808D304204A490870002086
:100F600049490860FF204949087080E100220221B8
:100F7000484801F03AFE642000F011FFFFF7DDF968
:100F8000002000F035FD00204149086005203D4962
:100F900008706CE140A278215020FFF7CBFB3C4861
:100FA000006832303A49086008460068142804D3C3
:100FB0000020086006203349087058E139A26421F6
:100FC0003C20FFF7B7FB03233C48027882213C20FA
:100FD00000F00EFE3948007870B1002037490870E3
:100FE0003748FFF72CFE002000F002FD1348FFF702
:100FF000D7FC07202349087025480068323024496F
:10100000086008460068B0F5167F0ED3002008601F
:1010100046F2666000F0ECFC02201A4908700020DD
:1010200019490860FF201949087020E105E1F8E03E
:10103000EAE0D1E0B8E060E044E0000068040020AD
:10104000455849545F4F4B3A000000002C00000007
:10105000504C4154453A0000434F4C4F523A000027
:10106000494E3A004F55543A000000005354415441
:1010700055533A000D0000000A0000004645453A6D
:1010800000000000000000200C00002010000020E4
:10109000080000200010014057616974696E672ED6
:1010A0002E2E000053746174653A57414954494EDD
:1010B000475F524553554C5400000000BC000020CF
:1010C000E8030020F94800683230F8490860084613
:1010D0000068642810D30020086000F089FCF4A2A6
:1010E00050213220FFF726FBF6A278211E20FFF7C1
:1010F00021FB0820F7490870B9E0F7A2A0213220AF
:10110000FFF718FBF6480323A021C26D642000F00E
:101110006FFD00235922A021822000F0A2FC0023B1
:101120007522A0218E2000F09CFC00236122A021CA
:101130009A2000F096FC00236E22A021A62000F049
:1011400090FCE8480078D8B10020E6490870E6A194
:10115000E848FFF7DDFB98B1002000F049FCE6A26B
:1011600064213C20FFF7E6FAE8A28C212820FFF753
:10117000E1FA40F2DC5000F012FE0920D549087077
:10118000CA4800683230C949086008460068B0F5AE
:10119000966F08D30020086046F2666000F028FCD5
:1011A0000020CC49087062E00120DC49087001F0A1
:1011B00045FAFFF77FFBFFF7D5FABC4800683230ED
:1011C000BA49086008460068C82804D300200860AF
:1011D0000A20C04908704AE0FFF76CFBFFF7C2FA2B
:1011E000B24800683230B14908600846006841F2F0
:1011F0008831884207D30020C849087001F01EFAE0
:101200000B20B449087032E0FFF754FBFFF7AAFA4D
:10121000012001F0C2F9012802D10C20AD4908706B
:1012200025E00120BE490870FFF79CFA0D20A9496E
:10123000087000209D49086019E0FFF793FA01202B
:1012400001F0ABF920B90020B5490870A149087038
:1012500096480068323095490860084600684EF6A6
:101260006021884202D300209A49087000BF00BF65
:1012700010BD00BF1020FEF77AFF00F0C9FD00F09E
:10128000DDF900F057FA00F0EDFE00F03FFF00221C
:101290000821A44801F0A9FC00F0F0FD01F04BF991
:1012A00001F062F901F02EF9FFF7FBF946F26660F2
:1012B00000F09EFB00BF01F0F4F80028FBD00020F6
:1012C00084490870954908709549087001F0B6F98D
:1012D000002418E00020C4EBC401934A02F8210066
:1012E000C4EBC40102EB81014860002508E0002145
:1012F000C4EBC4008C4A02EB8000083041556D1CE1
:10130000142DF4D3641C062CE4D3002000F070FBF1
:1013100086A26421142000F003FD4FF47A7000F0DF
:101320003EFD46F2666000F063FB3EE0FFF7B8FD6D
:10133000002000F0ABFE0646012E03D1774908706D
:1013400001F07CF9022E04D100207449087001F0EC
:1013500075F964480078002826D00020614908709B
:1013600075A16448FFF7D4FAD8B175A16148FFF7B9
:10137000CFFA40B175A2B4213C20FFF7DBF9012080
:1013800001F05CF910E074A15A48FFF7C1FA58B1B6
:1013900074A2B4213C20FFF7CDF9002001F04EF9F2
:1013A00002E05448FFF74BFC00BFBFE702460021B4
:1013B00027E06F4850F831000078137898421ED12A
:1013C0006B4850F83100407808B1507858B96848F7
:1013D00050F83100407890B9507880B9644800EBFB
:1013E000C10000797047624850F831004078537866
:1013F000984204D15E4800EBC1000079F2E7481C36
:10140000C1B21D29D5D3FF20ECE72DE9F04389B007
:1014100006460F469046B8F11F0F02DB09B0BDE843
:10142000F083002407E0534800EB4810005D01A959
:101430000855601C84B2202CF5DB002431E0002527
:1014400011E001A911F814908020284100EA090058
:1014500038B13A1991B2721990B24FF6FF7200F09A
:10146000EDFA681C85B2082DEBDB002515E0600065
:10147000401C01A911F800908020284100EA0900D1
:1014800048B13A1991B206F108022A4490B24FF6D7
:10149000FF7200F0D3FA681C85B2082DE7DB601CF0
:1014A00084B2102CCBDB00BFB8E70000080000209E
:1014B0005061796D656E74205265717569726564ED
:1014C000000000005363616E20515220746F205061
:1014D00061790000000000204665653A20000000A8
:1014E00068040020BC0000205041595F535543431D
:1014F00045535300E80300205061796D656E7420F8
:101500005375636365737321000000004761746560
:10151000204F70656E696E672E2E2E00020000202F
:101520000300002000100140C804002049504D5322
:101530002052656164790000474154453A0000003B
:10154000474154453A4F50454E000000476174658D
:101550003A204F50454E2000474154453A434C4FA6
:1015600053450000476174653A20434C4F53450092
:10157000588800087884000810B540F225511B48AF
:1015800002F0C9FF002830D0184802F07DFDC4B237
:101590000A2C03D0164800787F281CDB0020154950
:1015A000134A1278885412490870AFF25C511148FE
:1015B000FFF7AEF958B9AFF278510E48FFF7A8F926
:1015C00028B9AFF28C010B48FFF7A2F960B10120F6
:1015D0000949087008E00D2C06D005490878411C1F
:1015E000034A117003490C5400BF10BD003801407C
:1015F000BB000020E8030020BC0000200648804714
:1016000006480047FEE7FEE7FEE7FEE7FEE7FEE7E7
:10161000FEE7FEE7FEE7FEE7EF800008ED000008CA
:10162000704700BFFEE700BFFEE700BFFEE700BF58
:10163000FEE77047704770477047000008B501210A
:10164000192002F054F80121F94801F0D3FB1020D1
:101650008DF8030003208DF802004FF40070ADF800
:1016600000006946F34801F09BF84FF48060ADF844
:1016700000006946EF4801F093F84FF40060ADF8C0
:1016800000006946EB4801F08BF84FF48050ADF84C
:1016900000006946E74801F083F84FF48070ADF828
:1016A00000006946E34801F07BF84FF6FF70ADF8A3
:1016B00000006946E04801F073F801229102DD481C
:1016C00001F093FA0122D102DA4801F08EFA0122E8
:1016D0001103D84801F089FA00224FF40071D5486F
:1016E00001F083FA08BD10B50446D3480C300460FD
:1016F0000022C114CF4801F078FA0122D102CD486E
:1017000001F073FA10BD10B5044600224FF4805169
:10171000C84801F06AFA2046FFF7E5FF10BD10B592
:10172000044601221103C34801F05FFA2046FFF787
:10173000DAFF10BD10B501221102BE4801F055FAC2
:101740000A2000F02CFB00224FF48071B94801F010
:101750004CFA0A2000F023FB01221102B54801F0E7
:1017600044FA0A2000F01BFBCF20FFF7CCFF00203B
:10177000FFF7D5FFC120FFF7D2FF3020FFF7CFFFE3
:10178000ED20FFF7C0FF6420FFF7C9FF0320FFF73C
:10179000C6FF1220FFF7C3FF8120FFF7C0FFE8203C
:1017A000FFF7B1FF8520FFF7BAFF1020FFF7B7FF63
:1017B0007A20FFF7B4FFCB20FFF7A5FF3920FFF712
:1017C000AEFF2C20FFF7ABFF0020FFF7A8FF34206F
:1017D000FFF7A5FF0220FFF7A2FFF720FFF793FF17
:1017E0002020FFF79CFFEA20FFF78DFF0020FFF786
:1017F00096FF0020FFF793FFC020FFF784FF1B2018
:10180000FFF78DFFC120FFF77EFF0120FFF787FF65
:10181000C520FFF778FF3020FFF781FF3020FFF76A
:101820007EFFC720FFF76FFFB720FFF778FF362056
:10183000FFF769FF4820FFF772FF3A20FFF763FFC9
:101840005520FFF76CFFB120FFF75DFF0020FFF789
:1018500066FF1A20FFF763FFB620FFF754FF0A2048
:10186000FFF75DFFA220FFF75AFFF220FFF74BFFC3
:101870000020FFF754FF2620FFF745FF0120FFF768
:101880004EFFE020FFF73FFF0F20FFF748FF2A2021
:10189000FFF745FF2820FFF742FF0820FFF73FFF33
:1018A0000E20FFF73CFF0820FFF739FF5420FFF719
:1018B00036FFA920FFF733FF4320FFF730FF0A2050
:1018C000FFF72DFF0F20FFF72AFF0020FFF727FF6C
:1018D0000020FFF724FF0020FFF721FF0020FFF783
:1018E0001EFFE120FFF70FFF0020FFF718FF152074
:1018F000FFF715FF1720FFF712FF0720FFF70FFF75
:101900001120FFF70CFF0620FFF709FF2B20FFF740
:1019100006FF5620FFF703FF3C20FFF700FF0520DE
:10192000FFF7FDFE1020FFF7FAFE0F20FFF7F7FE8E
:101930003F20FFF7F4FE3F20FFF7F1FE0F20FFF7F7
:10194000EEFE2B20FFF7DFFE0020FFF7E8FE002071
:10195000FFF7E5FE0120FFF7E2FE3F20FFF7DFFE85
:101960002A20FFF7D0FE0020FFF7D9FE0020FFF766
:10197000D6FE0020FFF7D3FEEF20FFF7D0FE1120A8
:10198000FFF7C1FE782000F0F3F92920FFF7BBFE36
:101990003620FFF7B8FE6C20FFF7C1FE10BD2DE921
:1019A000F04104460D4616461F462A20FFF7ABFEBF
:1019B0002012FFF7B4FEE0B2FFF7B1FE3012FFF7DE
:1019C000AEFEF0B2FFF7ABFE2B20FFF79CFE281215
:1019D000FFF7A5FEE8B2FFF7A2FE3812FFF79FFE61
:1019E000F8B2FFF79CFE2C20FFF78DFEBDE8F081DA
:1019F00070B50646F0234FF4A07200210846FFF7A9
:101A0000CEFF012211030B4801F0EFF800240AE099
:101A1000002504E03046FFF766FE681C85B2F02D15
:101A2000F8DB601C84B2B4F5A07FF1DB70BD000070
:101A30000002300000100140000C014070B5044667
:101A40000D4616462B46224629462046FFF7A7FF9D
:101A500001221103BD4801F0C8F83046FFF743FEEC
:101A600070BD2DE9F04706460F4690469A46A8F10C
:101A7000200000F0FF08BAF1000F26D1002421E079
:101A8000B34800EB081010F80490002516E009F0A8
:101A9000010040B13A1991B2721990B24FF6FF723B
:101AA000FFF7CCFF06E03A1991B2721990B200220A
:101AB000FFF7C4FF4FEA6909681CC5B2082DE6DBD1
:101AC000601CC4B2122CDBDB1DE0002419E0A0482E
:101AD00000EB081010F8049000250EE009F001005A
:101AE00038B13A1991B2721990B24FF6FF72FFF7FE
:101AF000A5FF4FEA6909681CC5B20A2DEEDB601C20
:101B0000C4B2142CE3DBF0234FF4A072002108468A
:101B1000FFF745FFBDE8F08710B50246012000E061
:101B200050430B1EA1F10104E1B2F9D110BD2DE922
:101B3000F04104460E46154642F2107095FBF0F057
:101B40003030C7B200233A4631462046FFF789FFBE
:101B50004FF47A7095FBF0F00A2190FBF1F201FB53
:101B600012003030C7B204F1080188B200233A46AF
:101B70003146FFF776FF642095FBF0F00A2190FBD9
:101B8000F1F201FB12003030C7B204F1100188B24B
:101B900000233A463146FFF764FF04F1180188B28A
:101BA00000232E223146FFF75CFF0A2095FBF0F060
:101BB0000A2190FBF1F201FB12003030C7B204F1B0
:101BC000200188B200233A463146FFF74AFF0A2037
:101BD00095FBF0F100FB11503030C7B204F1280141
:101BE00088B200233A463146FFF73BFFBDE8F0815B
:101BF0002DE9F0470646894617461D46002418E0A1
:101C0000281B401EC1B20A20FFF786FFB7FBF0F089
:101C10000A21B0FBF1F201FB120808F13001CAB24F
:101C200006EBC40188B200234946FFF71AFF601C87
:101C3000C4B2AC42E4DBBDE8F0872DE9F0410446D4
:101C40000D46B4F5A07F01DAF02D02DB0020BDE8DF
:101C5000F0812B46224629462046FFF7A0FE2E2083
:101C6000FFF751FD4FF088303A490860091D0860C0
:101C70004FF6FF7037490C31086001228914334850
:101C800000F0B3FF00224FF40071304800F0ADFFC8
:101C900000224FF480612D4800F0A7FF642000F07F
:101CA00073F801229102294800F09FFF00224FF4AF
:101CB0008061264800F099FF642000F065F825480F
:101CC0000830006886B201229102204800F08DFFA2
:101CD00000224FF480611D4800F087FF1D48083046
:101CE00000681FFA80F801229102184800F07DFF79
:101CF000F7B24FF6FF7000EA07274FF0333015496F
:101D00000860091D08604FF6FF7012490C31086029
:101D1000F012C002B91240EA411040EAE82096E70A
:101D20002DE9F04106460F461546002409E02A5DDC
:101D300006EBC40188B200233946FFF792FE601C0F
:101D400084B2285D0028F2D1BDE8F0810010014086
:101D500040890008000C0140014606E04FF4FA7289
:101D600000E0521E002AFCD1491E0029F6D170471E
:101D7000014606E043F6982200E0521E002AFCD1FC
:101D8000491E0029F6D17047014605E0142200E003
:101D9000521E002AFCD1491E0029F7D17047014686
:101DA00042F228324A434FF0E0235A6100229A61FE
:101DB00001221A6100BF4FF0E022106900F0010219
:101DC0001AB100F48032002AF5D000224FF0E0234F
:101DD0001A619A617047014601EBC1024FF0E0239E
:101DE0005A6100229A6101221A6100BF4FF0E0227D
:101DF000106900F001021AB100F48032002AF5D017
:101E000000224FF0E0231A619A61704700BFFEE79D
:101E100008B50121102001F06AFC0121202001F009
:101E200066FC4FF40050ADF8000010208DF8030060
:101E300003208DF802006946084800F0B1FC042038
:101E4000ADF8000010208DF8030003208DF802008B
:101E50006946034800F0A4FC08BD000000100140E2
:101E60000014014000BF7D4A128802F04002002A9F
:101E7000F9D0C2B2794B1B1D1A80704700B587B0EC
:101E80000121052001F033FC0121880301F02FFC22
:101E900018208DF81B004FF40070ADF818000320D7
:101EA0008DF81A0006A96E4800F07AFC04208DF81F
:101EB0001B000002ADF8180006A9694800F070FC8C
:101EC0004FF4E13002900020ADF80C00ADF80E00A8
:101ED000ADF81000ADF814000C20ADF8120002A906
:101EE0005E4801F080FD01215C4801F0C0FE252024
:101EF0008DF8040000208DF8050001208DF8060003
:101F00008DF8070001A802F006FC012240F22551DD
:101F1000524801F0D9FE07B000BD10B50446214675
:101F20004E4802F08AF800BF40214C4802F064FAA3
:101F30000028F9D010BD10B5044603E014F8010BD9
:101F4000FFF7EBFF20780028F8D110BD10B504464C
:101F500000BF4021414802F04FFA0028F9D0E1B219
:101F60003E4802F06AF810BD10B500BF20213B4882
:101F700002F042FA0028F9D0384802F085F810BD86
:101F80002DE9F04104460A20B4FBF0F100FB1145B5
:101F90006420B4FBF0F100FB11400A21B0FBF1F624
:101FA0004FF47A70B4FBF0F100FB11406421B0FBF8
:101FB000F1F0C7B24FF47A70B4FBF0F000F0FF0814
:101FC00008F13000FFF7C2FF07F13000FFF7BEFF56
:101FD00006F13000FFF7BAFF05F13000FFF7B6FF5A
:101FE0000D20FFF7B3FF0A20FFF7B0FFBDE8F08137
:101FF0002DE9F04104460A20B4FBF0F100FB114545
:102000006420B4FBF0F100FB11400A21B0FBF1F6B3
:102010004FF47A70B4FBF0F100FB11406421B0FB87
:10202000F1F0C7B24FF47A70B4FBF0F000F0FF08A3
:1020300008F13000FFF78AFF07F13000FFF786FF55
:1020400006F13000FFF782FF05F13000FFF77EFF59
:102050002020FFF77BFFBDE8F08100000038014041
:102060000008014008B50121042001F040FB482090
:102070008DF8030003208DF802004FF48850ADF86E
:10208000000069461F4800F08BFB08BD10B50446F0
:1020900014B101201C4908701B48007808B34FF4A4
:1020A0008071184800F041FC28B14FF48051154868
:1020B00000F03BFCA8B90A20FFF75AFE00201249A5
:1020C00008704FF480710F4800F02FFC08B9012010
:1020D00010BD4FF480510B4800F027FC80B902205E
:1020E000F6E74FF48071074800F01FFC012807D184
:1020F0000103044800F019FC012801D102490870CD
:102100000020E5E700080140C400002008B50121D7
:10211000102001F0ECFA0121102001F0E8FA012171
:10212000102001F0E4FA0121102001F0E0FA012171
:10213000102001F0DCFA0121102001F0D8FA012171
:10214000102001F0D4FA0121102001F0D0FA102063
:102150008DF8030003208DF802000220ADF8000086
:102160006946E54800F01CFB0420ADF80000694614
:10217000E14800F015FB0820ADF800006946DE4894
:1021800000F00EFB1020ADF800006946DA4800F0C0
:1021900007FB2020ADF800006946D74800F000FB9F
:1021A0004020ADF800006946D34800F0F9FA8020DD
:1021B000ADF800006946D04800F0F2FA4FF4005044
:1021C000ADF800006946CC4800F0EAFA012104208D
:1021D00001F08DFA48208DF803004FF6FF70ADF83E
:1021E00000006946C54800F0DBFA08BD08B5482084
:1021F0008DF8030003208DF802008020ADF8000068
:102200006946BD4800F0CCFA08BD08B510208DF82D
:10221000030003208DF802008020ADF8000069461D
:10222000B54800F0BDFA08BD0420B349486110204C
:102230004861086148610420086110200861704706
:1022400010B501228021AC4800F0CFFC0220FFF73E
:1022500083FD01224021A84800F0C7FC0220FFF7BF
:102260007BFD00228021A44800F0BFFC0220FFF784
:1022700073FD00224021A04800F0B7FC0220FFF7C8
:102280006BFD10BD10B5002280219B4800F0ADFC15
:102290000220FFF761FD01224021974800F0A5FCD4
:1022A0000220FFF759FD01228021934800F09DFC98
:1022B0000220FFF751FD10BD10B5012280218E488C
:1022C00000F093FC0220FFF747FD012240218A48DD
:1022D00000F08BFC0220FFF73FFD002240218648E2
:1022E00000F083FC0220FFF737FD002280218248A6
:1022F00000F07BFC0220FFF72FFD10BD10B5FFF7AB
:1023000075FF012280217C4800F06FFC0220FFF75E
:1023100023FD01224021784800F067FC0220FFF7EE
:102320001BFD8021744800F000FB04460220FFF7EB
:1023300013FD00224021704800F057FC0220FFF7F7
:102340000BFDFFF762FF002280216B4800F04DFC7F
:102350000CB9012010BD0020FCE770B50546002433
:102360001CE005FA04F0C0F3C0128021624800F0BE
:102370003CFC0220FFF7F0FC012240215E4800F007
:1023800034FC0220FFF7E8FC002240215A4800F00C
:102390002CFC0220FFF7E0FC601CC4B2082CE0DB40
:1023A00000228021544800F020FCFFF7A7FF70BDF9
:1023B00070B50025FFF71AFF00241CE00122402120
:1023C0004D4800F012FC0220FFF7C6FC80214A486D
:1023D00000F0ABFA10B18020204105430220FFF746
:1023E000BBFC00224021444800F0FFFB0220FFF725
:1023F000B3FC601CC4B2082CE0DBFFF706FF002230
:1024000080213D4800F0F1FB284670BD70B50546BF
:102410000C46FFF715FF4220FFF79FFF18B9FFF7A3
:1024200031FF002070BD2846FFF797FF18B9FFF76E
:1024300029FF0020F6E72046FFF78FFF18B9FFF7C6
:1024400021FF0020EEE7FFF71DFF0120EAE770B54E
:1024500005460C46FFF7F4FE4220FFF77EFF18B951
:10246000FFF710FF002070BD2846FFF776FF18B970
:10247000FFF708FF0020F6E7FFF704FFFFF7E0FE95
:102480004320FFF76AFF18B9FFF7FCFE0020EAE7D8
:10249000FFF78EFF2070FFF70FFFFFF7F3FE01201D
:1024A000E1E738B50024802000909DF8001012204C
:1024B000FFF7ACFF08B9002038BD69460B20FFF7D5
:1024C000C6FF08B90020F7E79DF80000732811D176
:1024D00000240DE00A4A02EB44025178084A12F83F
:1024E0001400FFF793FF08B90020E5E7601CC4B2B1
:1024F000B82CEFDB0120DFE70010014000080140AD
:10250000308F000808B50121102001F0F0F84FF4D9
:102510008040ADF8000028208DF8030003208DF8DE
:10252000020069465D4800F03BF94FF480415B488A
:1025300000F005FB08BD08B50121042001F0D7F823
:102540004FF40040ADF8000048208DF80300032050
:102550008DF802006946524800F022F94FF400411C
:102560004F4800F0ECFA08BD08B50121042001F045
:10257000BEF84FF40060ADF8000010208DF80300A5
:1025800003208DF802006946454800F009F94FF430
:102590000061434800F0D3FA08BD10B5044614B1F9
:1025A0000120404908703F480078A0B14FF48041B5
:1025B0003A4800F0BAF901280DD10A20FFF7D8FBFC
:1025C0000020384908704FF48041344800F0ADF9DC
:1025D000012809D110BD4FF48041304800F0A5F921
:1025E00010B901202F4908700020F3E710B5044608
:1025F00014B101202C4908702B48007898B14FF491
:102600000041274800F091F968B90A20FFF7B0FBB4
:102610000020254908704FF40041214800F085F959
:1026200050B9012010BD4FF400411D4800F07DF964
:10263000012801D11C4908700020F3E770B5044659
:10264000ACB9002510E04FF40061154800F077FAAE
:102650000120FFF78DFB4FF40061114800F09AFA5A
:102660001320FFF785FB6D1C642DECDB14E00025C7
:1026700010E04FF400610A4800F061FA0220FFF711
:1026800077FB4FF40061064800F084FA1220FFF750
:102690006FFB6D1C642DECDB70BD00000010014071
:1026A00000080140C5000020C600002010B5044607
:1026B000FC48844211D0FC4884420ED0FB4884423E
:1026C0000BD0FB48844208D0FA48844205D0FA482F
:1026D000844202D0F948844200D103E06F21F8A07F
:1026E000FFF794FBEF48844208D10121042001F058
:1026F00050F80021042001F04CF846E0EA488442FA
:1027000008D10121082001F044F80021082001F03F
:1027100040F83AE0E548844208D10121102001F058
:1027200038F80021102001F034F82EE0E04884420F
:1027300008D10121202001F02CF80021202001F0F7
:1027400028F822E0DB48844208D10121402001F032
:1027500020F80021402001F01CF816E0D648844201
:1027600008D10121802001F014F80021802001F01F
:1027700010F80AE0D148844207D10121801501F008
:1027800008F80021A01501F004F810BD10B50121D2
:10279000084600F0FEFF0021012000F0FAFF10BD06
:1027A0002DE9F05F05460C464FF00009CA460026A9
:1027B0000027B046B346BB48854211D0BA4885428F
:1027C0000ED0BA4885420BD0B948854208D0B948E6
:1027D000854205D0B848854202D0B848854200D12C
:1027E00003E0B221B6A0FFF711FBE078A0B1E078DA
:1027F000042811D0E07828280ED0E07848280BD0A3
:10280000E078142808D0E078102805D0E0781C285B
:1028100002D0E078182800D103E0B321A8A0FFF788
:10282000F5FA002010B9208800B103E0B421A4A07B
:10283000FFF7ECFAE07800F00F09E07800F0100004
:1028400080B1A078012805D0A078022802D0A07815
:10285000032800D103E0BB2199A0FFF7D7FAA078A5
:1028600040EA0909207838B3D5F8008000261FE037
:10287000012000FA06F7208800EA070ABA4516D1B7
:10288000B7000F2000FA07FB28EA0B0809FA07F047
:1028900040EA0808E078282803D10120B0406861A8
:1028A00005E0E078482802D10120B0402861761C7C
:1028B000082EDDD3C5F800802088FF282BDDD5F851
:1028C0000480002623E006F10800012101FA00F748
:1028D000208800EA070ABA4518D1B7000F2000FA8D
:1028E00007FB28EA0B0809FA07F040EA0808E07835
:1028F000282803D106F1080081406961E078482862
:1029000004D106F10800012181402961761C082EBE
:10291000D9D3C5F80480BDE8F09F4FF6FF71018060
:10292000022181700421C170704770B505460C46C4
:1029300000265C48854211D05B4885420ED05B483A
:1029400085420BD05A48854208D05A48854205D066
:102950005948854202D05948854200D104E04FF4DD
:102960008F7157A0FFF752FA012C25D0022C23D0EB
:10297000042C21D0082C1FD0102C1DD0202C1BD0B3
:10298000402C19D0802C17D0B4F5807F14D0B4F52A
:10299000007F11D0B4F5806F0ED0B4F5006F0BD06E
:1029A000B4F5805F08D0B4F5005F05D0B4F5804F72
:1029B00002D0B4F5004F00D104E040F21F1140A056
:1029C000FFF724FAA868204008B1012600E000269D
:1029D000304670BD10B504463248844211D03248AA
:1029E00084420ED0314884420BD03148844208D012
:1029F0003048844205D03048844202D02F48844277
:102A000000D104E04FF49A712DA0FFF7FFF9A06800
:102A100080B210BD70B505460C460026214885429F
:102A200011D0214885420ED0204885420BD0204845
:102A3000854208D01F48854205D01F48854202D0F4
:102A40001E48854200D104E04FF4A2711CA0FFF79C
:102A5000DDF9012C25D0022C23D0042C21D0082C08
:102A60001FD0102C1DD0202C1BD0402C19D0802C16
:102A700017D0B4F5807F14D0B4F5007F11D0B4F531
:102A8000806F0ED0B4F5006F0BD0B4F5805F08D026
:102A9000B4F5005F05D0B4F5804F02D0B4F5004F17
:102AA0001ED123E000080140000C0140001001404D
:102AB0000014014000180140001C014000200140AA
:102AC0002E2E5C4C6962726172795C7372635C7306
:102AD000746D3332663130785F6770696F2E6300D2
:102AE00040F24511AFF22800FFF790F9E868204066
:102AF00008B1012600E00026304670BD10B504463E
:102B0000FE48844211D0FE4884420ED0FD488442E3
:102B10000BD0FD48844208D0FC48844205D0FC48D4
:102B2000844202D0FB48844200D105E04FF4AD71ED
:102B3000AFF27400FFF76AF9E06880B210BD70B5BB
:102B400004460D46ED48844211D0ED4884420ED033
:102B5000EC4884420BD0EC48844208D0EB488442D5
:102B600005D0EB48844202D0EA48844200D105E017
:102B700040F26911AFF2B800FFF748F9002008B938
:102B800005B105E04FF4B571AFF2CC00FFF73EF9A7
:102B9000256170BD70B504460D46D848844211D0F9
:102BA000D74884420ED0D74884420BD0D6488442BE
:102BB00008D0D648844205D0D548844202D0D548B2
:102BC000844200D105E040F27911AFF20C10FFF71A
:102BD0001DF9002008B905B105E04FF4BD71AFF251
:102BE0002010FFF713F9656170BD70B505460C46FE
:102BF0001646C248854211D0C14885420ED0C14810
:102C000085420BD0C048854208D0C048854205D0D7
:102C1000BF48854202D0BF48854200D105E040F25E
:102C20008D11AFF26410FFF7F1F8012C25D0022CC2
:102C300023D0042C21D0082C1FD0102C1DD0202CE8
:102C40001BD0402C19D0802C17D0B4F5807F14D025
:102C5000B4F5007F11D0B4F5806F0ED0B4F5006FDD
:102C60000BD0B4F5805F08D0B4F5005F05D0B4F5A3
:102C7000804F02D0B4F5004F00D105E04FF4C7718A
:102C8000AFF2C410FFF7C2F80EB1012E00D105E07B
:102C900040F28F11AFF2D810FFF7B8F80EB12C61E7
:102CA00000E06C6170BD70B504460D4693488442E7
:102CB00011D0934884420ED0924884420BD092485F
:102CC000844208D09148844205D09148844202D081
:102CD0009048844200D105E04FF4D271AFF2202039
:102CE000FFF794F8E56070BD70B504460D464FF4EB
:102CF00080368248844211D0814884420ED0814877
:102D000084420BD08048844208D08048844205D059
:102D10007F48844202D07F48844200D105E040F2DF
:102D2000B511AFF26420FFF771F8002008B905B1C2
:102D300005E04FF4DB71AFF27820FFF767F82E4320
:102D4000A661A561A661A669A66970BD70B50546B4
:102D50000C4600263DB1012D05D0022D03D0032DD8
:102D600001D0042D00D105E04FF4E971AFF2B0209D
:102D7000FFF74CF8ECB1012C1BD0022C19D0032C1E
:102D800017D0042C15D0052C13D0062C11D0072CED
:102D90000FD0082C0DD0092C0BD00A2C09D00B2CED
:102DA00007D00C2C05D00D2C03D00E2C01D00F2CED
:102DB00000D105E040F2D311AFF2FC20FFF726F876
:102DC000554806684FF68070064046EA05162643C9
:102DD0005148066070BD10B504460CB1012C00D1FD
:102DE00005E04FF4F371AFF22830FFF70FF84B48CE
:102DF000C46110BD2DE9F04704460E460027B846D1
:102E00000025A946012C77D0022C75D0042C73D054
:102E1000082C71D0424884426ED041482030844210
:102E20006AD04048844267D03E488030844263D0B4
:102E30003D48844260D03D4884425DD03C48844255
:102E40005AD03C48844257D03B48844254D0B4F5D1
:102E5000805F51D0B4F5EA1F4ED0B4F5EB1F4BD0D4
:102E6000B4F5004F48D03548844245D0401C8442D8
:102E700042D0801C84427FD0001D84427CD02F48E9
:102E80000F30844278D0B4F1201F75D04FEAF03073
:102E9000844271D02A4884426ED02A4884426BD042
:102EA0002948844268D02948844265D02848844211
:102EB00062D0B4F5011F5FD0264884425CD0401C2C
:102EC000844259D0801C844256D0001D844253D085
:102ED00020480F3084424FD01E481F3084424BD0D0
:102EE0001C483F30844247D01A487F30844243D048
:102EF0001848FF3084422FE03EE000000008014007
:102F0000000C014000100140001401400018014075
:102F1000001C014000200140000001400000204250
:102F200010001400400016000001180000021800F4
:102F30000003180000081A00000C1A00010020000D
:102F400000013000000230000004300000112000B9
:102F500000202000010000800ED0664884420BD083
:102F60006548844208D06548844205D0644884425C
:102F700002D06448844200D105E040F22A21AFF239
:102F8000C040FEF743FF0EB1012E00D105E040F234
:102F90002B21AFF2D440FEF739FF04F00040B0F12E
:102FA000004F02D15848C56901E057484568C4F34D
:102FB0000349A7B204F44010B0F5401F08D125F032
:102FC00070655148406820F070604F49486013E0D8
:102FD00004F48010B0F5801F07D1032000FA09F82F
:102FE00025EA080545F0706506E0600D000107FA66
:102FF00000F0854345F0706526B1600D010107FAC8
:1030000001F0054304F00040B0F1004F02D13E480A
:10301000C56101E03C484560BDE8F08770B50546F4
:103020000C4600265DB1012D09D0022D07D0032DDD
:1030300005D0042D03D0052D01D0062D00D105E0CB
:1030400040F26521AFF28850FEF7E0FEECB1012CB2
:103050001BD0022C19D0032C17D0042C15D0052C12
:1030600013D0062C11D0072C0FD0082C0DD0092C12
:103070000BD00A2C09D00B2C07D00C2C05D00D2C12
:1030800003D00E2C01D00F2C00D105E040F26621B8
:10309000AFF2D450FEF7BAFEA007010F0F2000FADE
:1030A00001F619480830A11050F82100B043164924
:1030B0000831A21041F822000846A11050F8210062
:1030C000A107090F05FA01F108430F490831A210C1
:1030D00041F8220070BD10B504460CB1012C00D19E
:1030E00005E04FF41E71AFF22860FEF78FFE07482F
:1030F000046010BD00020080000400800008008011
:10310000001000800020008000000140DC00204210
:10311000FE48006840F00100FC490860084640682D
:10312000FB490840F949486008460068F9490840E9
:10313000F64908600846006820F4802008600846C8
:10314000406820F4FE0048604FF41F00886070471C
:1031500010B504462CB1B4F5803F02D0B4F5802FF1
:1031600000D104E040F21111EBA0FEF74FFEE7485A
:10317000006820F48030E54908600846006820F4C3
:1031800080200860B4F5803F03D0B4F5802F0ED1C5
:1031900006E0DE48006840F48030DC49086007E063
:1031A000DA48006840F4A020D849086000E000BF79
:1031B00000BF10BD2DE9F041044600250026002780
:1031C000212C13D0312C11D0392C0FD0412C0DD003
:1031D000612C0BD07A2C09D07B2C07D07C2C05D00D
:1031E0007D2C03D07E2C01D07F2C00D104E040F256
:1031F0003451C9A0FEF70AFE6511012D02D1C34862
:10320000066806E0022D02D1C048066A01E0BF4808
:10321000466A04F01F050120A840304008B101278C
:1032200000E000273846BDE8F08138B50020009066
:103230000024002500BF3120FFF7BCFF05460098A1
:10324000401C00900098B0F5A06F01D0002DF2D086
:103250003120FFF7AFFF08B1012400E00024204631
:1032600038BD70B5044600251F2C00DC04E04FF487
:10327000A971A9A0FEF7CAFDA448056825F0F805C4
:1032800045EAC405056070BD10B504460CB1012CBB
:1032900000D104E040F265119FA0FEF7B7FDA648FB
:1032A000046010BD70B505460C4600262DB1B5F57D
:1032B000803F02D0B5F5403F00D104E040F27F11DD
:1032C00095A0FEF7A3FD4CB3B4F5802F26D0B4F53E
:1032D000002F23D0B4F5402F20D0B4F5801F1DD08F
:1032E000B4F5A01F1AD0B4F5C01F17D0B4F5E01F75
:1032F00014D0B4F5001F11D0B4F5101F0ED0B4F5E2
:10330000201F0BD0B4F5301F08D0B4F5401F05D0F6
:10331000B4F5501F02D0B4F5601F00D104E04FF4A3
:10332000C0717DA0FEF772FD7848466826F47C16D1
:1033300045EA040006437548466070BD10B5044672
:103340000CB1012C00D104E04FF4CA7172A0FEF759
:103350005DFD7948046610BD70B5044600251CB1BA
:10336000012C01D0022C00D104E04FF40E716AA0B0
:10337000FEF74CFD6548456825F00305254345608B
:1033800070BD6248406800F00C00704770B504469C
:1033900000257CB1802C0DD0902C0BD0A02C09D016
:1033A000B02C07D0C02C05D0D02C03D0E02C01D0FD
:1033B000F02C00D104E04FF4197157A0FEF726FD60
:1033C0005248456825F0F0052543456070BD70B54D
:1033D000044600255CB1B4F5806F08D0B4F5A06F49
:1033E00005D0B4F5C06F02D0B4F5E06F00D104E0B1
:1033F00040F27E2148A0FEF709FD4448456825F4C7
:10340000E0652543456070BD70B5044600255CB19C
:10341000B4F5806F08D0B4F5A06F05D0B4F5C06FD7
:1034200002D0B4F5E06F00D104E04FF426713AA069
:10343000FEF7ECFC3548456825F4605545EAC405BF
:10344000456070BD70B504460D4604F0E00008B953
:1034500004B104E040F2BF212FA0FEF7D7FC0DB16C
:10346000012D00D104E04FF430712BA0FEF7CEFC0B
:103470002DB12648407A20432449487204E023486D
:10348000407AA0432149487270BD10B504460CB182
:10349000012C00D104E040F2DB211FA0FEF7B6FCB6
:1034A0002548D830046010BD70B50446002544B1ED
:1034B000B4F5804F05D0B4F5004F02D0B4F5404FBD
:1034C00000D104E040F2023113A0FEF79FFC0F4848
:1034D000456825F440452543456070BD10B5044658
:1034E0001CB1012C01D0042C00D104E04FF4507128
:1034F00009A0FEF78BFC0020044920310870034925
:1035000081F82000012C1BD0042C17E00010024091
:103510000000FFF8FFFFF6FE2E2E5C4C6962726120
:1035200072795C7372635C73746D333266313078B8
:103530005F7263632E6300000000424208D103E023
:103540000120F449087004E00520F249087000E009
:1035500000BF00BF10BD10B504460CB1012C00D156
:1035600005E040F26131AFF25000FEF74FFCEA484F
:10357000046010BD10B50446B4F5807F05D0B4F5E5
:10358000007F02D0B4F5407F00D105E040F27231F7
:10359000AFF27C00FEF73AFCDE482038006A204398
:1035A000DC492039086210BD10B504460CB1012C6D
:1035B00000D105E04FF46071AFF2A400FEF726FCE5
:1035C000D5484438046010BD30B5002100220024E5
:1035D0000023D04D203D6D6805F00C0121B1042978
:1035E00005D0082926D105E0CC4D056025E0CB4D5E
:1035F000056022E0C74D203D6D6805F47012C54D91
:10360000203D6D6805F48034022505EB92421CB91B
:10361000C34D554305600CE0BE4D203D6D6805F47B
:1036200000351DB1BE4D5543056002E0BB4D55430D
:10363000056002E0B94D056000BF00BFB54D203DFB
:103640006D6805F0F0010909B64D6B5C0568DD4059
:103650004560B04D203D6D6805F4E061090AB14D4B
:103660006B5C4568DD408560AA4D203D6D6805F4C2
:103670006051C90AAB4D6B5C4568DD40C560A54D26
:10368000203D6D6805F44041890BA74D6B5CC56812
:10369000B5FBF3F5056130BD70B504460D4640F24B
:1036A000575024EA000008B904B105E040F22B416C
:1036B000AFF29C10FEF7AAFB0DB1012D00D105E081
:1036C00040F22C41AFF2B010FEF7A0FB3DB19148A3
:1036D0002038406920438F492039486106E08D48F1
:1036E00020384069A0438B492039486170BD70B5CE
:1036F00004460D468D48204008B904B105E040F26B
:103700004A41AFF2EC10FEF781FB0DB1012D00D163
:1037100005E040F24B41AFF20020FEF777FB3DB1F0
:103720007C482038806920437A492039886106E046
:10373000784820388069A04376492039886170BD77
:1037400070B504460D467A48204008B904B105E03A
:1037500040F26941AFF24020FEF758FB0DB1012D58
:1037600000D105E040F26A41AFF25420FEF74EFB73
:103770003DB168482038C069204366492039C86196
:1037800006E064482038C069A04362492039C86116
:1037900070BD70B504460D466448204008B904B1B8
:1037A00005E040F2A441AFF29020FEF72FFB0DB1EF
:1037B000012D00D105E040F2A541AFF2A420FEF7B3
:1037C00025FB3DB153482038C0682043514920397A
:1037D000C86006E04F482038C068A0434D492039F2
:1037E000C86070BD70B504460D465148204008B908
:1037F00004B105E040F2C341AFF2E420FEF706FB5E
:103800000DB1012D00D105E040F2C441AFF2F82026
:10381000FEF7FCFA3DB13F482038006920433D499E
:103820002039086106E03B4820380069A043394947
:103830002039086170BD10B504460CB1012C00D1CF
:1038400005E04FF49B61AFF23030FEF7DFFA32480B
:103850004038046010BD10B504460CB1012C00D1F5
:1038600005E040F2E541AFF25030FEF7CFFA3148C3
:10387000C46410BD10B504463CB1052C05D0042C21
:1038800003D0062C01D0072C00D105E040F20551F1
:10389000AFF27C30FEF7BAFA1E482038C47110BD72
:1038A0001C482038406A40F080701A49203948622C
:1038B000704770B504460025012C09D0022C07D0B2
:1038C000042C05D0082C03D0102C01D0802C00D162
:1038D00005E040F27E51AFF2C030FEF797FA0D4896
:1038E00020388068204008B1012500E000252846E6
:1038F00070BD10B5044604F0600008B904B105E0DD
:1039000040F2AB51AFF2F030FEF780FA01482038B8
:10391000847210BD201002408004424200127A00DE
:1039200000093D00C7000020D70000200200C0FFB2
:10393000003601810000424210B50446FE48844230
:103940000BD0FE48844208D0FD48844205D0FD4893
:10395000844202D0FC48844200D103E08521FBA0D0
:10396000FEF754FAF448844209D101218803FFF795
:1039700010FF00214FF48040FFF70BFF32E0EF48CB
:10398000844209D101214804FFF72CFF00214FF4A4
:103990000030FFF727FF25E0E948844209D10121E3
:1039A0008804FFF71FFF00214FF48020FFF71AFF64
:1039B00018E0E448844209D10121C804FFF712FF4E
:1039C00000214FF40020FFF70DFF0BE0DE4884429A
:1039D00008D101210805FFF705FF00214FF48010F1
:1039E000FFF700FF10BD2DE9F04786B005460C46F5
:1039F0000026B24600BFB1460027CF4885420BD013
:103A0000CE48854208D0CE48854205D0CD48854273
:103A100002D0CD48854200D103E0B821CBA0FEF70B
:103A2000F5F9206820B1D2492068884200D203E02D
:103A3000B921C6A0FEF7EAF9A08818B1A088B0F5B0
:103A4000805F00D103E0BA21C0A0FEF7DFF9E08873
:103A500058B1E088B0F5805F07D0E088B0F5005F2E
:103A600003D0E088B0F5405F00D103E0BB21B7A0F0
:103A7000FEF7CCF9208938B12089B0F5806F03D0EA
:103A80002089B0F5C06F00D103E0BC21AFA0FEF7E4
:103A9000BDF960894FF6F371084010B9608900B133
:103AA00003E0BD21A9A0FEF7B1F9A08958B1A08912
:103AB000B0F5807F07D0A089B0F5007F03D0A08942
:103AC000B0F5407F00D103E0BE21A0A0FEF79EF933
:103AD000A08968B19848854205D09848854202D0AF
:103AE0009748854200D103E0C22198A0FEF78EF9E5
:103AF0002F462E8A4CF6FF700640E08806432E8241
:103B0000AE894EF6F3100640A088218908436189EA
:103B100008430643AE81AE8A4FF6FF400640A089B7
:103B20000643AE8201A8FFF74FFD8348874202D1CA
:103B3000DDF810A001E0DDF80CA0A88900F4004039
:103B400040B10AEBCA0000EB0A1021684900B0FB43
:103B5000F1F807E00AEBCA0000EB0A1021688900BF
:103B6000B0FBF1F86420B8FBF0F0060130096421E5
:103B700001FB1089A88900F4004040B1322000EB1D
:103B8000C900B0FBF1F000F00700064308E0322066
:103B900000EB09106421B0FBF1F000F00F000643C8
:103BA0002E8106B0BDE8F0874FF416510160002168
:103BB0008180C18001810C21418100218181704778
:103BC00070B505460C4600265B48854205D05B482B
:103BD000854202D05A48854200D104E04FF49971E1
:103BE0005AA0FEF713F9208818B12088B0F5006FAD
:103BF00000D104E040F2331154A0FEF707F96088C9
:103C000018B16088B0F5806F00D104E04FF49A716C
:103C10004EA0FEF7FBF8A08818B1A088B0F5007F91
:103C200000D104E040F2351148A0FEF7EFF8E0883B
:103C300018B1E088B0F5807F00D104E04FF49B71AB
:103C400042A0FEF7E3F82E8A4FF2FF0006402088DC
:103C500061880843A1880843E188084306432E820F
:103C600070BD0021018041808180C180704770B5A6
:103C700004460D46304884420BD03048844208D078
:103C80002F48844205D02F48844202D02E488442D7
:103C900000D104E04FF4B1712CA0FEF7B7F80DB1DC
:103CA000012D00D104E040F2631128A0FEF7AEF828
:103CB00025B1A08940F40050A08104E0A0894DF610
:103CC000FF710840A08170BD2DE9F04705460C4604
:103CD00017464FF00008C246C146002616488542E6
:103CE0000BD01648854208D01548854205D01548A6
:103CF000854202D01448854200D104E040F2891187
:103D000012A0FEF783F8282C38D040F227708442A6
:103D100034D040F22660844230D040F225508442B4
:103D20002CD040F22440844228D040F64600844201
:103D300024D040F66A101DE00038014000440040E5
:103D400000480040004C0040005000402E2E5C4CCB
:103D50006962726172795C7372635C73746D333221
:103D6000663130785F75736172742E6300000000F5
:103D700021AA4400844201D0602C00D105E04FF418
:103D8000C571AFF23800FEF741F80FB1012F00D135
:103D900005E040F28B11AFF24C00FEF737F840F629
:103DA0006A1084420FD1F948854205D0F84885420F
:103DB00002D0F848854200D105E040F28F11AFF201
:103DC0007400FEF723F82E46C4F3421804F01F0ACD
:103DD000012000FA0AF9B8F1010F01D10C3605E013
:103DE000B8F1020F01D1103600E0143627B1306867
:103DF00040EA0900306003E0306820EA09003060E2
:103E0000BDE8F08770B504460D461646DF4884428B
:103E10000BD0DF48844208D0DE48844205D0DE481B
:103E2000844202D0DD48844200D105E040F2C31153
:103E3000AFF2E800FDF7EAFF4FF63F70284008B9FF
:103E400005B105E04FF4E271AFF20010FDF7DEFFBF
:103E50000EB1012E00D105E040F2C511AFF21410F1
:103E6000FDF7D4FF1EB1A08A2843A08202E0A08AF9
:103E7000A843A08270BD70B504460D46C348844275
:103E80000BD0C348844208D0C248844205D0C248FF
:103E9000844202D0C148844200D105E040F2DF11E3
:103EA000AFF25810FDF7B2FF0F2D00DC05E04FF424
:103EB000F071AFF26810FDF7A9FF208A4FF6F0719C
:103EC00008402082208A2843208270BD70B50446B5
:103ED0000D46AE4884420BD0AD48844208D0AD4870
:103EE000844205D0AC48844202D0AC48844200D120
:103EF00005E04FF4FB71AFF2AC10FDF787FF15B191
:103F0000B5F5006F00D105E040F2F711AFF2C41033
:103F1000FDF77CFFA0894FF2FF710840A081A089C6
:103F20002843A08170BD70B504460D469748844271
:103F30000BD09748844208D09648844205D09648D2
:103F4000844202D09548844200D105E040F2092124
:103F5000AFF20820FDF75AFF0DB1012D00D105E0A9
:103F600040F20A21AFF21C20FDF750FF25B1A089D5
:103F700040F00200A08104E0A0894FF6FD710840E6
:103F8000A08170BD70B504460D46804884420BD0B8
:103F90007F48844208D07F48844205D07E488442CE
:103FA00002D07E48844200D105E040F22621AFF2E3
:103FB0006420FDF72BFF0DB1202D00D105E040F26C
:103FC0002721AFF27820FDF721FF208A4FF6DF711D
:103FD00008402082208A2843208270BD70B50446A4
:103FE0000D466A4884420BD06948844208D069482B
:103FF000844205D06848844202D06848844200D197
:1040000005E040F23921AFF2BC20FDF7FFFE0DB113
:10401000012D00D105E040F23A21AFF2D020FDF7AA
:10402000F5FE25B1208A40F48040208204E0208AF9
:104030004BF6FF710840208270BD70B504460D46F6
:10404000524884420BD05248844208D0514884429E
:1040500005D05148844202D05048844200D105E046
:1040600040F25321AFF21C30FDF7D0FEB5F5007FD2
:1040700000DA05E04FF41571AFF23030FDF7C6FEFF
:10408000C5F30800A08070BD10B504463F488442C7
:104090000BD03F48844208D03E48844205D03E4879
:1040A000844202D03D48844200D105E04FF41971AA
:1040B000AFF26830FDF7AAFEA088C0F3080010BD7B
:1040C00010B50446314884420BD03148844208D0B0
:1040D0003048844205D03048844202D02F48844280
:1040E00000D105E04FF41D71AFF2A030FDF78EFE58
:1040F000A08940F00100A08110BD70B504460D46B6
:104100002248844205D02248844202D02148844279
:1041100000D105E04FF42171AFF2D030FDF776FE0B
:10412000208BC0B22083208B40EA0520208370BD05
:1041300070B504460D46154884420BD0144884429D
:1041400008D01448844205D01348844202D0134852
:10415000844200D105E04FF42671AFF21040FDF724
:1041600055FE208B00F47F402083208B2843208342
:1041700070BD70B504460D460448844205D004481D
:10418000844202D0034884420AD10FE00038014043
:104190000044004000480040004C004000500040F7
:1041A00040F2AB21AFF25C40FDF730FE0DB1012DC6
:1041B00000D105E04FF42B71AFF27040FDF726FE01
:1041C00025B1A08A40F02000A08204E0A08A4FF62A
:1041D000DF710840A08270BD70B504460D46F948F5
:1041E000844205D0F848844202D0F848844200D185
:1041F00005E04FF43171AFF2AC40FDF707FE0DB1B1
:10420000012D00D105E040F2C521AFF2C040FDF71D
:10421000FDFD25B1A08A40F01000A08204E0A08A34
:104220004FF6EF710840A08270BD70B504460D4690
:10423000E44884420BD0E448844208D0E3488442F6
:1042400005D0E348844202D0E248844200D105E030
:1042500040F2DE21AFF20C50FDF7D8FD0DB1012D7B
:1042600000D105E040F2DF21AFF22050FDF7CEFD96
:1042700025B1A08A40F00800A08204E0A08A4FF691
:10428000F7710840A08270BD70B504460D46CD4858
:1042900084420BD0CC48844208D0CC48844205D01C
:1042A000CB48844202D0CB48844200D105E040F2A2
:1042B000FD21AFF26850FDF7A9FD0DB1012D00D130
:1042C00005E040F2FE21AFF27C50FDF79FFD25B1E5
:1042D000A08940F40040A08103E0A089C0F30E0053
:1042E000A08170BD70B504460D46B64884420BD01F
:1042F000B548844208D0B548844205D0B4488442C9
:1043000002D0B448844200D105E04FF44671AFF2C8
:10431000C450FDF77BFD0DB1012D00D105E040F249
:104320001931AFF2D850FDF771FD25B1A08A40F4E4
:104330000060A08204E0A08A4FF2FF710840A082D2
:1043400070BD70B504460D469E4884420BD09E4811
:10435000844208D09D48844205D09D48844202D0C2
:104360009C48844200D105E040F23531AFF2246030
:10437000FDF74CFD042D00D005B905E040F23631C3
:10438000AFF23860FDF742FDA08A4FF6FB7108409E
:10439000A082A08A2843A08270BD70B504460D4655
:1043A000884884420BD08848844208D08748844299
:1043B00005D08748844202D08648844200D105E077
:1043C0004FF45271AFF27C60FDF720FD0DB1012D6D
:1043D00000D105E040F24931AFF29060FDF716FDE3
:1043E00025B1A08A40F00200A08204E0A08A4FF626
:1043F000FD710840A08270BD70B505460C460026D0
:10440000704885420BD07048854208D06F4885427D
:1044100005D06F48854202D06E48854200D105E044
:1044200040F26E31AFF2DC60FDF7F0FC012C13D0EE
:10443000802C11D0402C0FD0202C0DD0102C0BD064
:10444000B4F5807F08D0B4F5007F05D0082C03D0E8
:10445000042C01D0022C00D105E040F26F31AFF204
:104460001470FDF7D3FCB4F5007F0FD15548854299
:1044700005D05548854202D05448854200D105E018
:1044800040F27331AFF23C70FDF7C0FC2888204049
:1044900008B1012600E00026304670BD70B5044624
:1044A0000D46484884420BD04748844208D04748CC
:1044B000844205D04648844202D04648844200D116
:1044C00005E040F29E31AFF27C70FDF79FFC4FF6A5
:1044D0009F40284008B905B105E040F29F31AFF296
:1044E0009470FDF793FC05F40070B0F5007F0FD1D8
:1044F0003448844205D03448844202D03348844250
:1045000000D105E040F2A331AFF2C070FDF77EFCB0
:10451000E843208070BD2DE9F04705460C46002792
:104520000026B046B146274885420BD02648854232
:1045300008D02648854205D02548854202D0254826
:10454000854200D105E040F2C131AFF60000FDF731
:104550005DFC282C20D040F2277084421CD040F211
:104560002660844218D040F22550844214D040F294
:104570002440844210D040F6460084420CD040F6DD
:104580006A10844208D0B4F5587F05D0B4F5187F7E
:1045900002D0B4F5B07F00D105E040F2C231AFF6F1
:1045A0005400FDF733FC40F66A1084421AD10548E6
:1045B000854205D00448854202D0044885420BD18B
:1045C00010E0000000380140004400400048004076
:1045D000004C00400050004040F2C631AFF694005D
:1045E000FDF714FCC4F3421804F01F06012000FA82
:1045F00006F6B8F1010F02D1A889064007E0B8F12C
:10460000020F02D1288A064001E0A88A064027123C
:10461000012000FA07F7288807401EB117B14FF0B4
:10462000010901E04FF000094846BDE8F0872DE997
:10463000F04104460D4600260027244884420BD052
:104640002348844208D02348844205D0224884422B
:1046500002D02248844200D105E040F20A41AFF680
:104660001410FDF7D3FB40F2266085420BD040F2D8
:104670002550854207D040F64600854203D040F6DB
:104680006A10854200D105E040F20B41AFF64410BC
:10469000FDF7BCFB40F66A1085420FD10B488442FF
:1046A00005D00B48844202D00A48844200D105E07C
:1046B00040F20F41AFF66C10FDF7A8FB2E1201205F
:1046C000B04087B2F8432080BDE8F0810038014057
:1046D0000044004000480040004C004000500040B2
:1046E00010B50446B4F5E06F0BD0B4F5C06F08D038
:1046F000B4F5A06F05D0B4F5806F02D0B4F5407F5B
:1047000000D103E063215DA0FDF780FB61482043F9
:104710006149086010BD2DE9F041044600250027DD
:104720000F26E07810B1E078012800D103E0752170
:1047300052A0FDF76BFB6078102800DA03E07621C9
:104740004EA0FDF763FBA078102800DA03E0772184
:104750004AA0FDF75BFBE07800B34F48006800F427
:10476000E060C0F5E060050AC5F10407EE4060783E
:1047700000FA07F5A078304005432D01474822781C
:104780008554207800F01F010120884021784911CC
:10479000890001F1E021C1F8000109E0207800F072
:1047A0001F01012088403E492278521141F8220021
:1047B000BDE8F08170B504460D46B4F1005F02D04B
:1047C000B4F1006F00D103E09F212CA0FDF71EFB88
:1047D0003448854200D203E0A02128A0FDF716FB53
:1047E000314905EA010020432B49091F086070BDCB
:1047F00070B504460D46102C03D0042C01D0022CB9
:1048000000D103E0B2211DA0FDF700FB0DB1012D89
:1048100000D103E0B32119A0FDF7F8FA3DB11E481D
:10482000001D006820431C49091D086006E01A4865
:10483000001D0068A0431849091D086070BD10B52F
:104840000446042C01D0601D00B903E0CA210BA06E
:10485000FDF7DCFA042C08D14FF0E020006940F0AD
:1048600004004FF0E021086107E04FF0E02000690C
:1048700020F004004FF0E021086110BD2E2E5C4CAA
:104880006962726172795C7372635C6D6973632EC5
:10489000630000000000FA050CED00E000E400E019
:1048A00080E100E0FFFF0F0080FFFF1F10B504460E
:1048B000F84884422FD0B4F1804F2CD0F64884427F
:1048C00029D0F648844226D0F548844223D0F548C2
:1048D000844220D0F44884421DD0F44884421AD047
:1048E000F348844217D0F348844214D0F2488442FB
:1048F00011D0F24884420ED0F14884420BD0F148E6
:10490000844208D0F048844205D0F048844202D066
:10491000EF48844200D103E07D21EEA0FDF776FA56
:10492000DC48844208D10121C014FEF732FF002187
:10493000E014FEF72EFFC4E0B4F1804F08D101214E
:104940000846FEF74FFF00210120FEF74BFFB8E0BD
:10495000D148844208D101210220FEF743FF002103
:104960000220FEF73FFFACE0CC48844208D1012191
:104970000420FEF737FF00210420FEF733FFA0E0FC
:10498000C748844208D101210820FEF72BFF0021EF
:104990000820FEF727FF94E0C248844208D1012195
:1049A0001020FEF71FFF00211020FEF71BFF88E0FC
:1049B000BD48844208D101212020FEF713FF0021C9
:1049C0002020FEF70FFF7CE0B848844208D1012187
:1049D0004014FEF7DEFE00216014FEF7DAFE70E000
:1049E000B348844209D10121C804FEF7D2FE002158
:1049F0004FF40020FEF7CDFE63E0AE48844209D1BB
:104A000001210805FEF7C5FE00214FF48010FEF7D6
:104A1000C0FE56E0A848844209D101214805FEF7AE
:104A2000B8FE00214FF40010FEF7B3FE49E0A348A2
:104A3000844208D101214020FEF7D4FE002140200D
:104A4000FEF7D0FE3DE09E48844208D1012180203F
:104A5000FEF7C8FE00218020FEF7C4FE31E0994831
:104A6000844208D101218015FEF7BCFE0021A0156B
:104A7000FEF7B8FE25E09448844209D101210804DC
:104A8000FEF787FE00214FF48030FEF782FE18E02B
:104A90008E48844209D101214804FEF77AFE0021A4
:104AA0004FF40030FEF775FE0BE08948844208D1D0
:104AB00001218804FEF76DFE00214FF48020FEF7EF
:104AC00068FE10BD70B504460D460026714884424C
:104AD0002FD0B4F1804F2CD06F48844229D06F483A
:104AE000844226D06E48844223D06E48844220D02F
:104AF0006D4884421DD06D4884421AD06C4884426F
:104B000017D06C48844214D06B48844211D06B4853
:104B100084420ED06A4884420BD06A48844208D04E
:104B20006948844205D06948844202D0684884427A
:104B300000D103E0E72167A0FDF768F9688858B164
:104B40006888102808D06888202805D06888402800
:104B500002D06888602800D103E0E8215DA0FDF75D
:104B600055F9E88838B1E888B0F5807F03D0E88847
:104B7000B0F5007F00D103E0E92156A0FDF746F92A
:104B80002688444884420ED0484884420BD0B4F171
:104B9000804F08D04048844205D04048844202D02B
:104BA0003F48844204D14FF68F7006406888064320
:104BB0003C48844207D03C48844204D04FF6FF4032
:104BC0000640E88806432680A888A0852888208596
:104BD000304884420BD03548844208D03A48844259
:104BE00005D03A48844202D03948844201D1287A1B
:104BF00020860120A08270BD2DE9F04104460D46BB
:104C00004FF00008002600272248844229D0B4F142
:104C1000804F26D02048844223D02048844220D090
:104C20001F4884421DD0214884421AD02048844223
:104C300017D02048844214D01F48844211D01F4806
:104C400084420ED01E4884420BD01E48844208D0B5
:104C50001D48844205D01D48844202D01C4884422D
:104C600000D104E04FF48E711AA0FDF7CFF8288828
:104C700070B1288810280BD02888202808D02888D0
:104C8000302805D02888602802D02888702831D1A3
:104C900036E00000002C0140000400400008004005
:104CA000000C00400010004000140040003401409F
:104CB000004C0140005001400054014000180040E9
:104CC000001C004000200040004001400044014022
:104CD000004801402E2E5C4C6962726172795C73EF
:104CE00072635C73746D3332663130785F74696DF2
:104CF0002E63000040F21D11AFF22800FDF786F888
:104D0000688810B16888012800D105E04FF48F71E0
:104D1000AFF24000FDF77AF8288910B128890228FF
:104D200000D105E040F21F11AFF25800FDF76EF818
:104D3000208C4FF6FE7108402084268CA788B4F89A
:104D400018804FF68F7008EA0008881E08EA0008ED
:104D5000288840EA0808481E0640288906436888D3
:104D60000643FE4884420BD0FD48844208D0FD48EB
:104D7000844205D0FC48844202D0FC48844245D19C
:104D8000A88810B1A888042800D105E04FF49E71CE
:104D9000AFF2C000FDF73AF8688910B168890828B9
:104DA00000D105E040F23D11AFF2D800FDF72EF83A
:104DB000E889B0F5007F01D0E88900B905E04FF43B
:104DC0009F71AFF2F000FDF721F8A889B0F5807F60
:104DD00001D0A88900B905E040F23F11AFF20C10F4
:104DE000FDF714F84FF6F7700640688906434FF652
:104DF000FB700640A88806434FF6FF6007404FF659
:104E0000FF500740A8890743E8890743A780A4F813
:104E10001880E888A0862684BDE8F0812DE9F0415D
:104E200005460C464FF0000800260027CB48854277
:104E300017D0B5F1804F14D0CD48854211D0CD4860
:104E400085420ED0CC4885420BD0C548854208D05B
:104E5000CA48854205D0CA48854202D0C148854229
:104E600000D105E040F26F11AFF29810FCF7CEFFD1
:104E7000208870B1208810280BD02088202808D0E6
:104E80002088302805D02088602802D0208870280B
:104E900000D105E04FF4B871AFF2C810FCF7B6FFCF
:104EA000608810B16088012800D105E040F27111DE
:104EB000AFF2E010FCF7AAFF208910B12089022888
:104EC00000D105E04FF4B971AFF2F810FCF79EFF86
:104ED000288C4FF6EF71084028842E8CAF88B5F8E7
:104EE000188048F6FF7008EA00084FF6FF4008EA0D
:104EF000000820884FF6FF7101EA002040EA080808
:104F00004FF6DF700640208901EA001006436088F2
:104F100001EA001006439148854202D0904885423C
:104F20004FD1A08810B1A088042800D105E040F23C
:104F30008F11AFF26020FCF769FF608910B16089C2
:104F4000082800D105E04FF4C871AFF27820FCF7D3
:104F50005DFFE089B0F5007F01D0E08900B905E090
:104F600040F29111AFF29420FCF750FFA089B0F508
:104F7000807F01D0A08900B905E04FF4C971AFF27C
:104F8000AC20FCF743FF4FF67F70064060894FF678
:104F9000FF7101EA001006434FF6BF700640A0887B
:104FA00001EA001006434FF6FF3007404FF2FF7052
:104FB0000740A08901EA80000743E08901EA8000F8
:104FC0000743AF80A5F81880E08828872E84BDE8C5
:104FD000F0812DE9F04105460C464FF0000800260F
:104FE00000275E4885420ED0B5F1804F0BD0604857
:104FF000854208D05F48854205D05F48854202D08F
:105000005748854200D105E040F2C111AFF23C3073
:10501000FCF7FCFE208870B1208810280BD0208877
:10502000202808D02088302805D02088602802D089
:105030002088702800D105E04FF4E171AFF26C30A8
:10504000FCF7E4FE608810B16088012800D105E01B
:1050500040F2C311AFF28430FCF7D8FE208910B1C2
:105060002089022800D105E04FF4E271AFF29C30B4
:10507000FCF7CCFE288C4FF6FF61084028842E8C6C
:10508000AF88B5F81C804FF68F7008EA00084FF61D
:10509000FC7008EA0008208840EA08084FF6FF5034
:1050A000064020894FF6FF7101EA00200643608820
:1050B00001EA002006432948854202D0284885425B
:1050C00064D1A08810B1A088042800D105E04FF475
:1050D000F071AFF20040FCF799FE608910B1608971
:1050E000082800D105E040F2E111AFF21840FCF7CA
:1050F0008DFEE089B0F5007F01D0E08900B905E0C0
:105100004FF4F171AFF23440FCF780FEA089B0F5A6
:10511000807F01D0A08900B905E040F2E311AFF231
:105120004C40FCF773FE4FF2FF70064060894FF66B
:10513000FF7101EA002006434FF6FF300640A088C9
:1051400001EA002006434EF6FF7007404DF6FF705F
:105150000740A08901EA0010074313E0002C01403A
:10516000003401400040014000440140004801403B
:105170000004004000080040000C0040004C0140CA
:1051800000180040E08901EA00100743AF80A5F84D
:105190001C80E088A8872E84BDE8F0812DE9F041CD
:1051A00004460D4600270026B046F84884420ED03B
:1051B000B4F1804F0BD0F648844208D0F5488442C1
:1051C00005D0F548844202D0F448844200D105E07D
:1051D0004FF40471AFF20450FCF718FE288870B148
:1051E000288810280BD02888202808D02888302824
:1051F00005D02888602802D02888702800D105E0D2
:1052000040F21121AFF23450FCF700FE688810B173
:105210006888012800D105E040F21221AFF24C501D
:10522000FCF7F4FD288910B12889022800D105E097
:1052300040F21321AFF26450FCF7E8FD208C4EF6EB
:10524000FF7108402084268CB4F80480A78B48F6B0
:10525000FF7007404FF6FF40074028884FF6FF7168
:1052600001EA002007434DF6FF700640288901EA55
:1052700000300643688801EA00300643C348844290
:1052800002D0C648844217D1A889B0F5807F01D0EA
:10529000A88900B905E04FF40C71AFF2C850FCF7D3
:1052A000B5FD4BF6FF7008EA0008A8894FF6FF71BC
:1052B00001EA801040EA0808A4F80480A783E8887F
:1052C000A4F840002684BDE8F08170B504460D4680
:1052D000AE4884420ED0B4F1804F0BD0AC4884422B
:1052E00008D0AC48844205D0AB48844202D0AB48D9
:1052F000844200D105E040F67611AFF22860FCF759
:1053000085FD2DB1042D03D0082D01D00C2D00D129
:1053100005E040F67711AFF24460FCF777FDA08B13
:105320004FF2FF310840A083A08B4FF6FF7101EAD6
:1053300005210843A08370BDF0B50C461546002238
:1053400000210026078C4EF6FF7C07EA0C07078435
:10535000828B018C4FF6FF7707EA043640F6FF4751
:105360003A404FF6FF7707EA05273A434FF6FF77B3
:1053700007EA03373A43854FB8420ED0874FB84209
:105380000BD0B0F1804F08D0814FB84205D0814F8B
:10539000B84202D0804FB84206D14DF6FF7739406F
:1053A00046F48057394305E047F6FF57394044F447
:1053B0008057394382830184F0BD70B504460D46A1
:1053C000724884420ED0B4F1804F0BD070488442B2
:1053D00008D07048844205D06F48844202D06F489C
:1053E000844200D105E04FF41661AFF21870FCF76B
:1053F0000DFD2DB1042D03D0082D01D00C2D00D1B1
:1054000005E040F66111AFF23470FCF7FFFCA08BB1
:105410004FF6F3710840A083A08B2843A08370BD92
:10542000F0B50C461546002200210026078C4FF6E9
:10543000FF6C07EA0C070784828B018C4FF6FF771D
:1054400007EA04264FF60C773A404FF6FF7707EA53
:1054500003172F433A434D4FB8420ED04F4FB84237
:105460000BD0B0F1804F08D0494FB84205D0494F1A
:10547000B84202D0484FB84206D14FF6FF573940E4
:1054800046F48077394305E04FF2FF57394044F442
:105490008077394382830184F0BD70B504460D46A0
:1054A0003A48844217D0B4F1804F14D0384884422F
:1054B00011D0384884420ED0374884420BD0374848
:1054C000844208D03648844205D03648844202D00F
:1054D0003548844200D105E040F64A11AFF60C0091
:1054E000FCF794FC2DB1042D03D0082D01D00C2D18
:1054F00000D105E040F64B11AFF62800FCF786FC22
:10550000208B4FF2FF3108402083208B4FF6FF7134
:1055100001EA05210843208370BDF0B50C4615460D
:10552000002200210026078C4FF6EF7C07EA0C07CB
:105530000784028B018C4FF6FF7707EA041640F6CA
:10554000FF473A404FF6FF7707EA03373A434FF6F3
:10555000FF7707EA05273A430C4FB8420ED00F4FAA
:10556000B8420BD0B0F1804F08D0094FB84205D0F7
:10557000084FB84202D0084FB84217D14FF6DF7734
:10558000394046F01007394316E00000002C014076
:105590000004004000080040000C004000340140BE
:1055A000004C014000180040004001404FF65F777A
:1055B000394044F01007394302830184F0BD70B5CF
:1055C00004460D46FB48844229D0B4F1804F26D0D2
:1055D000F948844223D0F948844220D0F8488442D4
:1055E0001DD0F84884421AD0F748844217D0F748B3
:1055F000844214D0F648844211D0F64884420ED03A
:10560000F54884420BD0F548844208D0F4488442DF
:1056100005D0F448844202D0F348844200D105E02A
:1056200040F63411AFF65410FCF7F0FB2DB1042D09
:1056300003D0082D01D00C2D00D105E040F6351126
:10564000AFF67010FCF7E2FB208B4FF6F3710840C9
:105650002083208B2843208370BDF0B50C4615466F
:1056600000220021068C4FF6FE773E400684028B16
:10567000018C4FF60C7632407E1C06EA03162E4350
:105680003243CC4EB0420ED0CE4EB0420BD0B0F131
:10569000804F08D0C84EB04205D0C84EB04202D0AC
:1056A000C74EB04206D14FF6FD76314044F00106B8
:1056B000314305E04FF6F576314044F001063143C1
:1056C00002830184F0BD70B504460D46288840B1C0
:1056D0002888042805D02888082802D028880C2883
:1056E00000D105E040F24E21AFF61820FCF78EFB0A
:1056F000A888012805D0A888022802D0A8880328F5
:1057000000D105E040F24F21AFF63820FCF77EFBD8
:10571000E88840B1E888042805D0E888082802D045
:10572000E8880C2800D105E04FF41471AFF65C2036
:10573000FCF76CFB28890F2800DC05E040F25121C2
:10574000AFF67020FCF762FB9A4884420ED09D4869
:1057500084420BD0B4F1804F08D09748844205D0E2
:105760009648844202D0964884420CD1688810B191
:105770006888022800D115E040F25621AFF6AC202F
:10578000FCF744FB0EE0688828B16888022802D044
:1057900068880A2800D105E040F25A21AFF6CC20F3
:1057A000FCF734FB2888E0BB8248844229D0B4F15E
:1057B000804F26D08048844223D08048844220D025
:1057C0007F4884421DD07F4884421AD07E4884425C
:1057D00017D07E48844214D07D48844211D07D4841
:1057E00084420ED07C4884420BD07C48844208D04E
:1057F0007B48844205D07B48844202D07A48844268
:1058000000D105E040F25E21AFF63830FCF7FEFA39
:105810002B89AA8869882046FFF71FFFE988204660
:1058200000E002E0FFF7CBFE79E0288804282CD1C5
:105830006048844217D0B4F1804F14D05E4884424F
:1058400011D05E4884420ED05D4884420BD05D4842
:10585000844208D05C48844205D05E48844202D02D
:105860005F48844200D105E04FF41A71AFF69C30D6
:10587000FCF7CCFA2B89AA8869882046FFF74DFEF1
:10588000E9882046FFF709FE49E02888082823D147
:10589000484884420ED0B4F1804F0BD04648844231
:1058A00008D04648844205D04548844202D0454845
:1058B000844200D105E040F27221AFF6E830FCF7F7
:1058C000A5FA2B89AA8869882046FFF7A9FDE988EF
:1058D0002046FFF772FD22E0364884420ED0B4F134
:1058E000804F0BD03448844208D03448844205D0DD
:1058F0003348844202D03348844200D105E04FF45B
:105900001F71AFF63040FCF781FA2B89AA886988AD
:105910002046FFF711FDE9882046FFF7D6FC70BD51
:105920002DE9F04105460C46002601272148854215
:1059300017D0B5F1804F14D01F48854211D01F48B1
:1059400085420ED01E4885420BD01E48854208D0A5
:105950001D48854205D01F48854202D02048854217
:1059600000D105E040F29321AFF69840FCF74EFAE3
:10597000608808B9022600E00026A088012801D12D
:10598000022700E00127208880BB2389A288618844
:105990002846FFF762FEE1882846FFF710FE2389BC
:1059A0003A4631462846FFF7B8FDE1882846FFF71A
:1059B00074FD30E0002C014000040040000800406D
:1059C000000C004000340140004C014000500140F8
:1059D0000054014000180040001C0040002000401E
:1059E000004001400044014000480140FFE7238996
:1059F000A28861882846FFF790FDE1882846FFF7D6
:105A00004CFD23893A4631462846FFF726FEE188B9
:105A10002846FFF7D4FDBDE8F08170B505460C4679
:105A2000FE4885420BD0FE48854208D0FD4885429D
:105A300005D0FD48854202D0FC48854200D105E0F2
:105A400040F2CB21AFF67450FCF7E0F92088B0F5B6
:105A5000006F01D0208800B905E04FF43371AFF634
:105A60008C50FCF7D3F96088B0F5806F01D0608866
:105A700000B905E040F2CD21AFF6A850FCF7C6F919
:105A8000A08858B1A088B0F5807F07D0A088B0F575
:105A9000007F03D0A088B0F5407F00D105E040F240
:105AA000CE21AFF6D050FCF7B1F92089B0F5805F78
:105AB00001D0208900B905E040F2CF21AFF6EC50CB
:105AC000FCF7A4F9608918B16089B0F5005F00D1D6
:105AD00005E04FF43471AFF60460FCF797F9A08944
